{
  "_format": "hh-sol-artifact-1",
  "contractName": "MyCryptoNFT",
  "sourceName": "contracts/poety_nft.sol",
  "abi": [
    {
      "inputs": [
        {
          "internalType": "string",
          "name": "name",
          "type": "string"
        },
        {
          "internalType": "string",
          "name": "symbol",
          "type": "string"
        }
      ],
      "stateMutability": "nonpayable",
      "type": "constructor"
    },
    {
      "anonymous": false,
      "inputs": [
        {
          "indexed": true,
          "internalType": "address",
          "name": "owner",
          "type": "address"
        },
        {
          "indexed": true,
          "internalType": "address",
          "name": "approved",
          "type": "address"
        },
        {
          "indexed": true,
          "internalType": "uint256",
          "name": "tokenId",
          "type": "uint256"
        }
      ],
      "name": "Approval",
      "type": "event"
    },
    {
      "anonymous": false,
      "inputs": [
        {
          "indexed": true,
          "internalType": "address",
          "name": "owner",
          "type": "address"
        },
        {
          "indexed": true,
          "internalType": "address",
          "name": "operator",
          "type": "address"
        },
        {
          "indexed": false,
          "internalType": "bool",
          "name": "approved",
          "type": "bool"
        }
      ],
      "name": "ApprovalForAll",
      "type": "event"
    },
    {
      "anonymous": false,
      "inputs": [
        {
          "indexed": true,
          "internalType": "address",
          "name": "from",
          "type": "address"
        },
        {
          "indexed": true,
          "internalType": "address",
          "name": "to",
          "type": "address"
        },
        {
          "indexed": true,
          "internalType": "uint256",
          "name": "tokenId",
          "type": "uint256"
        }
      ],
      "name": "Transfer",
      "type": "event"
    },
    {
      "inputs": [
        {
          "internalType": "address",
          "name": "to",
          "type": "address"
        },
        {
          "internalType": "uint256",
          "name": "tokenId",
          "type": "uint256"
        }
      ],
      "name": "approve",
      "outputs": [],
      "stateMutability": "nonpayable",
      "type": "function"
    },
    {
      "inputs": [
        {
          "internalType": "address",
          "name": "owner",
          "type": "address"
        }
      ],
      "name": "balanceOf",
      "outputs": [
        {
          "internalType": "uint256",
          "name": "",
          "type": "uint256"
        }
      ],
      "stateMutability": "view",
      "type": "function"
    },
    {
      "inputs": [
        {
          "internalType": "uint256",
          "name": "tokenId",
          "type": "uint256"
        }
      ],
      "name": "getApproved",
      "outputs": [
        {
          "internalType": "address",
          "name": "",
          "type": "address"
        }
      ],
      "stateMutability": "view",
      "type": "function"
    },
    {
      "inputs": [
        {
          "internalType": "address",
          "name": "owner",
          "type": "address"
        },
        {
          "internalType": "address",
          "name": "operator",
          "type": "address"
        }
      ],
      "name": "isApprovedForAll",
      "outputs": [
        {
          "internalType": "bool",
          "name": "",
          "type": "bool"
        }
      ],
      "stateMutability": "view",
      "type": "function"
    },
    {
      "inputs": [
        {
          "internalType": "string",
          "name": "author",
          "type": "string"
        },
        {
          "internalType": "string",
          "name": "title",
          "type": "string"
        },
        {
          "internalType": "string",
          "name": "text",
          "type": "string"
        }
      ],
      "name": "issueNFT",
      "outputs": [],
      "stateMutability": "nonpayable",
      "type": "function"
    },
    {
      "inputs": [],
      "name": "name",
      "outputs": [
        {
          "internalType": "string",
          "name": "",
          "type": "string"
        }
      ],
      "stateMutability": "view",
      "type": "function"
    },
    {
      "inputs": [],
      "name": "nft",
      "outputs": [
        {
          "internalType": "string",
          "name": "author",
          "type": "string"
        },
        {
          "internalType": "string",
          "name": "title",
          "type": "string"
        },
        {
          "internalType": "string",
          "name": "text",
          "type": "string"
        }
      ],
      "stateMutability": "view",
      "type": "function"
    },
    {
      "inputs": [
        {
          "internalType": "uint256",
          "name": "tokenId",
          "type": "uint256"
        }
      ],
      "name": "ownerOf",
      "outputs": [
        {
          "internalType": "address",
          "name": "",
          "type": "address"
        }
      ],
      "stateMutability": "view",
      "type": "function"
    },
    {
      "inputs": [
        {
          "internalType": "address",
          "name": "from",
          "type": "address"
        },
        {
          "internalType": "address",
          "name": "to",
          "type": "address"
        },
        {
          "internalType": "uint256",
          "name": "tokenId",
          "type": "uint256"
        }
      ],
      "name": "safeTransferFrom",
      "outputs": [],
      "stateMutability": "nonpayable",
      "type": "function"
    },
    {
      "inputs": [
        {
          "internalType": "address",
          "name": "from",
          "type": "address"
        },
        {
          "internalType": "address",
          "name": "to",
          "type": "address"
        },
        {
          "internalType": "uint256",
          "name": "tokenId",
          "type": "uint256"
        },
        {
          "internalType": "bytes",
          "name": "data",
          "type": "bytes"
        }
      ],
      "name": "safeTransferFrom",
      "outputs": [],
      "stateMutability": "nonpayable",
      "type": "function"
    },
    {
      "inputs": [
        {
          "internalType": "address",
          "name": "operator",
          "type": "address"
        },
        {
          "internalType": "bool",
          "name": "approved",
          "type": "bool"
        }
      ],
      "name": "setApprovalForAll",
      "outputs": [],
      "stateMutability": "nonpayable",
      "type": "function"
    },
    {
      "inputs": [
        {
          "internalType": "bytes4",
          "name": "interfaceId",
          "type": "bytes4"
        }
      ],
      "name": "supportsInterface",
      "outputs": [
        {
          "internalType": "bool",
          "name": "",
          "type": "bool"
        }
      ],
      "stateMutability": "view",
      "type": "function"
    },
    {
      "inputs": [],
      "name": "symbol",
      "outputs": [
        {
          "internalType": "string",
          "name": "",
          "type": "string"
        }
      ],
      "stateMutability": "view",
      "type": "function"
    },
    {
      "inputs": [
        {
          "internalType": "uint256",
          "name": "tokenId",
          "type": "uint256"
        }
      ],
      "name": "tokenURI",
      "outputs": [
        {
          "internalType": "string",
          "name": "",
          "type": "string"
        }
      ],
      "stateMutability": "view",
      "type": "function"
    },
    {
      "inputs": [
        {
          "internalType": "address",
          "name": "from",
          "type": "address"
        },
        {
          "internalType": "address",
          "name": "to",
          "type": "address"
        },
        {
          "internalType": "uint256",
          "name": "tokenId",
          "type": "uint256"
        }
      ],
      "name": "transferFrom",
      "outputs": [],
      "stateMutability": "nonpayable",
      "type": "function"
    }
  ],
  "bytecode": "0x60806040523480156200001157600080fd5b50604051620030cf380380620030cf8339818101604052810190620000379190620001fa565b818181600090816200004a9190620004ca565b5080600190816200005c9190620004ca565b5050505050620005b1565b6000604051905090565b600080fd5b600080fd5b600080fd5b600080fd5b6000601f19601f8301169050919050565b7f4e487b7100000000000000000000000000000000000000000000000000000000600052604160045260246000fd5b620000d08262000085565b810181811067ffffffffffffffff82111715620000f257620000f162000096565b5b80604052505050565b60006200010762000067565b9050620001158282620000c5565b919050565b600067ffffffffffffffff82111562000138576200013762000096565b5b620001438262000085565b9050602081019050919050565b60005b838110156200017057808201518184015260208101905062000153565b60008484015250505050565b6000620001936200018d846200011a565b620000fb565b905082815260208101848484011115620001b257620001b162000080565b5b620001bf84828562000150565b509392505050565b600082601f830112620001df57620001de6200007b565b5b8151620001f18482602086016200017c565b91505092915050565b6000806040838503121562000214576200021362000071565b5b600083015167ffffffffffffffff81111562000235576200023462000076565b5b6200024385828601620001c7565b925050602083015167ffffffffffffffff81111562000267576200026662000076565b5b6200027585828601620001c7565b9150509250929050565b600081519050919050565b7f4e487b7100000000000000000000000000000000000000000000000000000000600052602260045260246000fd5b60006002820490506001821680620002d257607f821691505b602082108103620002e857620002e76200028a565b5b50919050565b60008190508160005260206000209050919050565b60006020601f8301049050919050565b600082821b905092915050565b600060088302620003527fffffffffffffffffffffffffffffffffffffffffffffffffffffffffffffffff8262000313565b6200035e868362000313565b95508019841693508086168417925050509392505050565b6000819050919050565b6000819050919050565b6000620003ab620003a56200039f8462000376565b62000380565b62000376565b9050919050565b6000819050919050565b620003c7836200038a565b620003df620003d682620003b2565b84845462000320565b825550505050565b600090565b620003f6620003e7565b62000403818484620003bc565b505050565b5b818110156200042b576200041f600082620003ec565b60018101905062000409565b5050565b601f8211156200047a576200044481620002ee565b6200044f8462000303565b810160208510156200045f578190505b620004776200046e8562000303565b83018262000408565b50505b505050565b600082821c905092915050565b60006200049f600019846008026200047f565b1980831691505092915050565b6000620004ba83836200048c565b9150826002028217905092915050565b620004d5826200027f565b67ffffffffffffffff811115620004f157620004f062000096565b5b620004fd8254620002b9565b6200050a8282856200042f565b600060209050601f8311600181146200054257600084156200052d578287015190505b620005398582620004ac565b865550620005a9565b601f1984166200055286620002ee565b60005b828110156200057c5784890151825560018201915060208501945060208101905062000555565b868310156200059c578489015162000598601f8916826200048c565b8355505b6001600288020188555050505b505050505050565b612b0e80620005c16000396000f3fe608060405234801561001057600080fd5b50600436106100f55760003560e01c80636352211e11610097578063a22cb46511610066578063a22cb46514610286578063b88d4fde146102a2578063c87b56dd146102be578063e985e9c5146102ee576100f5565b80636352211e146101ec57806370a082311461021c578063815d08ce1461024c57806395d89b4114610268576100f5565b8063095ea7b3116100d3578063095ea7b31461017857806323b872dd1461019457806342842e0e146101b057806347ccca02146101cc576100f5565b806301ffc9a7146100fa57806306fdde031461012a578063081812fc14610148575b600080fd5b610114600480360381019061010f91906119c7565b61031e565b6040516101219190611a0f565b60405180910390f35b610132610400565b60405161013f9190611aba565b60405180910390f35b610162600480360381019061015d9190611b12565b610492565b60405161016f9190611b80565b60405180910390f35b610192600480360381019061018d9190611bc7565b6104d8565b005b6101ae60048036038101906101a99190611c07565b6105ef565b005b6101ca60048036038101906101c59190611c07565b61064f565b005b6101d461066f565b6040516101e393929190611c5a565b60405180910390f35b61020660048036038101906102019190611b12565b61081f565b6040516102139190611b80565b60405180910390f35b61023660048036038101906102319190611ca6565b6108a5565b6040516102439190611ce2565b60405180910390f35b61026660048036038101906102619190611e32565b61095c565b005b610270610a00565b60405161027d9190611aba565b60405180910390f35b6102a0600480360381019061029b9190611f05565b610a92565b005b6102bc60048036038101906102b79190611fe6565b610aa8565b005b6102d860048036038101906102d39190611b12565b610b0a565b6040516102e59190611aba565b60405180910390f35b61030860048036038101906103039190612069565b610b72565b6040516103159190611a0f565b60405180910390f35b60007f80ac58cd000000000000000000000000000000000000000000000000000000007bffffffffffffffffffffffffffffffffffffffffffffffffffffffff1916827bffffffffffffffffffffffffffffffffffffffffffffffffffffffff191614806103e957507f5b5e139f000000000000000000000000000000000000000000000000000000007bffffffffffffffffffffffffffffffffffffffffffffffffffffffff1916827bffffffffffffffffffffffffffffffffffffffffffffffffffffffff1916145b806103f957506103f882610c06565b5b9050919050565b60606000805461040f906120d8565b80601f016020809104026020016040519081016040528092919081815260200182805461043b906120d8565b80156104885780601f1061045d57610100808354040283529160200191610488565b820191906000526020600020905b81548152906001019060200180831161046b57829003601f168201915b5050505050905090565b600061049d82610c70565b6004600083815260200190815260200160002060009054906101000a900473ffffffffffffffffffffffffffffffffffffffff169050919050565b60006104e38261081f565b90508073ffffffffffffffffffffffffffffffffffffffff168373ffffffffffffffffffffffffffffffffffffffff1603610553576040517f08c379a000000000000000000000000000000000000000000000000000000000815260040161054a9061217b565b60405180910390fd5b8073ffffffffffffffffffffffffffffffffffffffff16610572610cbb565b73ffffffffffffffffffffffffffffffffffffffff1614806105a157506105a08161059b610cbb565b610b72565b5b6105e0576040517f08c379a00000000000000000000000000000000000000000000000000000000081526004016105d79061220d565b60405180910390fd5b6105ea8383610cc3565b505050565b6106006105fa610cbb565b82610d7c565b61063f576040517f08c379a00000000000000000000000000000000000000000000000000000000081526004016106369061229f565b60405180910390fd5b61064a838383610e11565b505050565b61066a83838360405180602001604052806000815250610aa8565b505050565b6006806000018054610680906120d8565b80601f01602080910402602001604051908101604052809291908181526020018280546106ac906120d8565b80156106f95780601f106106ce576101008083540402835291602001916106f9565b820191906000526020600020905b8154815290600101906020018083116106dc57829003601f168201915b50505050509080600101805461070e906120d8565b80601f016020809104026020016040519081016040528092919081815260200182805461073a906120d8565b80156107875780601f1061075c57610100808354040283529160200191610787565b820191906000526020600020905b81548152906001019060200180831161076a57829003601f168201915b50505050509080600201805461079c906120d8565b80601f01602080910402602001604051908101604052809291908181526020018280546107c8906120d8565b80156108155780601f106107ea57610100808354040283529160200191610815565b820191906000526020600020905b8154815290600101906020018083116107f857829003601f168201915b5050505050905083565b60008061082b8361110a565b9050600073ffffffffffffffffffffffffffffffffffffffff168173ffffffffffffffffffffffffffffffffffffffff160361089c576040517f08c379a00000000000000000000000000000000000000000000000000000000081526004016108939061230b565b60405180910390fd5b80915050919050565b60008073ffffffffffffffffffffffffffffffffffffffff168273ffffffffffffffffffffffffffffffffffffffff1603610915576040517f08c379a000000000000000000000000000000000000000000000000000000000815260040161090c9061239d565b60405180910390fd5b600360008373ffffffffffffffffffffffffffffffffffffffff1673ffffffffffffffffffffffffffffffffffffffff168152602001908152602001600020549050919050565b6040518060600160405280848152602001838152602001828152506006600082015181600001908161098e9190612569565b5060208201518160010190816109a49190612569565b5060408201518160020190816109ba9190612569565b5090505060008383836040516020016109d593929190612677565b6040516020818303038152906040528051906020012060001c90506109fa3382611147565b50505050565b606060018054610a0f906120d8565b80601f0160208091040260200160405190810160405280929190818152602001828054610a3b906120d8565b8015610a885780601f10610a5d57610100808354040283529160200191610a88565b820191906000526020600020905b815481529060010190602001808311610a6b57829003601f168201915b5050505050905090565b610aa4610a9d610cbb565b8383611364565b5050565b610ab9610ab3610cbb565b83610d7c565b610af8576040517f08c379a0000000000000000000000000000000000000000000000000000000008152600401610aef9061229f565b60405180910390fd5b610b04848484846114d0565b50505050565b6060610b1582610c70565b6000610b1f61152c565b90506000815111610b3f5760405180602001604052806000815250610b6a565b80610b4984611543565b604051602001610b5a9291906126a8565b6040516020818303038152906040525b915050919050565b6000600560008473ffffffffffffffffffffffffffffffffffffffff1673ffffffffffffffffffffffffffffffffffffffff16815260200190815260200160002060008373ffffffffffffffffffffffffffffffffffffffff1673ffffffffffffffffffffffffffffffffffffffff16815260200190815260200160002060009054906101000a900460ff16905092915050565b60007f01ffc9a7000000000000000000000000000000000000000000000000000000007bffffffffffffffffffffffffffffffffffffffffffffffffffffffff1916827bffffffffffffffffffffffffffffffffffffffffffffffffffffffff1916149050919050565b610c7981611611565b610cb8576040517f08c379a0000000000000000000000000000000000000000000000000000000008152600401610caf9061230b565b60405180910390fd5b50565b600033905090565b816004600083815260200190815260200160002060006101000a81548173ffffffffffffffffffffffffffffffffffffffff021916908373ffffffffffffffffffffffffffffffffffffffff160217905550808273ffffffffffffffffffffffffffffffffffffffff16610d368361081f565b73ffffffffffffffffffffffffffffffffffffffff167f8c5be1e5ebec7d5bd14f71427d1e84f3dd0314c0f7b2291e5b200ac8c7c3b92560405160405180910390a45050565b600080610d888361081f565b90508073ffffffffffffffffffffffffffffffffffffffff168473ffffffffffffffffffffffffffffffffffffffff161480610dca5750610dc98185610b72565b5b80610e0857508373ffffffffffffffffffffffffffffffffffffffff16610df084610492565b73ffffffffffffffffffffffffffffffffffffffff16145b91505092915050565b8273ffffffffffffffffffffffffffffffffffffffff16610e318261081f565b73ffffffffffffffffffffffffffffffffffffffff1614610e87576040517f08c379a0000000000000000000000000000000000000000000000000000000008152600401610e7e9061273e565b60405180910390fd5b600073ffffffffffffffffffffffffffffffffffffffff168273ffffffffffffffffffffffffffffffffffffffff1603610ef6576040517f08c379a0000000000000000000000000000000000000000000000000000000008152600401610eed906127d0565b60405180910390fd5b610f038383836001611652565b8273ffffffffffffffffffffffffffffffffffffffff16610f238261081f565b73ffffffffffffffffffffffffffffffffffffffff1614610f79576040517f08c379a0000000000000000000000000000000000000000000000000000000008152600401610f709061273e565b60405180910390fd5b6004600082815260200190815260200160002060006101000a81549073ffffffffffffffffffffffffffffffffffffffff02191690556001600360008573ffffffffffffffffffffffffffffffffffffffff1673ffffffffffffffffffffffffffffffffffffffff168152602001908152602001600020600082825403925050819055506001600360008473ffffffffffffffffffffffffffffffffffffffff1673ffffffffffffffffffffffffffffffffffffffff16815260200190815260200160002060008282540192505081905550816002600083815260200190815260200160002060006101000a81548173ffffffffffffffffffffffffffffffffffffffff021916908373ffffffffffffffffffffffffffffffffffffffff160217905550808273ffffffffffffffffffffffffffffffffffffffff168473ffffffffffffffffffffffffffffffffffffffff167fddf252ad1be2c89b69c2b068fc378daa952ba7f163c4a11628f55a4df523b3ef60405160405180910390a46111058383836001611658565b505050565b60006002600083815260200190815260200160002060009054906101000a900473ffffffffffffffffffffffffffffffffffffffff169050919050565b600073ffffffffffffffffffffffffffffffffffffffff168273ffffffffffffffffffffffffffffffffffffffff16036111b6576040517f08c379a00000000000000000000000000000000000000000000000000000000081526004016111ad9061283c565b60405180910390fd5b6111bf81611611565b156111ff576040517f08c379a00000000000000000000000000000000000000000000000000000000081526004016111f6906128a8565b60405180910390fd5b61120d600083836001611652565b61121681611611565b15611256576040517f08c379a000000000000000000000000000000000000000000000000000000000815260040161124d906128a8565b60405180910390fd5b6001600360008473ffffffffffffffffffffffffffffffffffffffff1673ffffffffffffffffffffffffffffffffffffffff16815260200190815260200160002060008282540192505081905550816002600083815260200190815260200160002060006101000a81548173ffffffffffffffffffffffffffffffffffffffff021916908373ffffffffffffffffffffffffffffffffffffffff160217905550808273ffffffffffffffffffffffffffffffffffffffff16600073ffffffffffffffffffffffffffffffffffffffff167fddf252ad1be2c89b69c2b068fc378daa952ba7f163c4a11628f55a4df523b3ef60405160405180910390a4611360600083836001611658565b5050565b8173ffffffffffffffffffffffffffffffffffffffff168373ffffffffffffffffffffffffffffffffffffffff16036113d2576040517f08c379a00000000000000000000000000000000000000000000000000000000081526004016113c990612914565b60405180910390fd5b80600560008573ffffffffffffffffffffffffffffffffffffffff1673ffffffffffffffffffffffffffffffffffffffff16815260200190815260200160002060008473ffffffffffffffffffffffffffffffffffffffff1673ffffffffffffffffffffffffffffffffffffffff16815260200190815260200160002060006101000a81548160ff0219169083151502179055508173ffffffffffffffffffffffffffffffffffffffff168373ffffffffffffffffffffffffffffffffffffffff167f17307eab39ab6107e8899845ad3d59bd9653f200f220920489ca2b5937696c31836040516114c39190611a0f565b60405180910390a3505050565b6114db848484610e11565b6114e78484848461165e565b611526576040517f08c379a000000000000000000000000000000000000000000000000000000000815260040161151d906129a6565b60405180910390fd5b50505050565b606060405180602001604052806000815250905090565b606060006001611552846117e5565b01905060008167ffffffffffffffff81111561157157611570611d07565b5b6040519080825280601f01601f1916602001820160405280156115a35781602001600182028036833780820191505090505b509050600082602001820190505b600115611606578080600190039150507f3031323334353637383961626364656600000000000000000000000000000000600a86061a8153600a85816115fa576115f96129c6565b5b049450600085036115b1575b819350505050919050565b60008073ffffffffffffffffffffffffffffffffffffffff166116338361110a565b73ffffffffffffffffffffffffffffffffffffffff1614159050919050565b50505050565b50505050565b600061167f8473ffffffffffffffffffffffffffffffffffffffff16611938565b156117d8578373ffffffffffffffffffffffffffffffffffffffff1663150b7a026116a8610cbb565b8786866040518563ffffffff1660e01b81526004016116ca9493929190612a4a565b6020604051808303816000875af192505050801561170657506040513d601f19601f820116820180604052508101906117039190612aab565b60015b611788573d8060008114611736576040519150601f19603f3d011682016040523d82523d6000602084013e61173b565b606091505b506000815103611780576040517f08c379a0000000000000000000000000000000000000000000000000000000008152600401611777906129a6565b60405180910390fd5b805181602001fd5b63150b7a0260e01b7bffffffffffffffffffffffffffffffffffffffffffffffffffffffff1916817bffffffffffffffffffffffffffffffffffffffffffffffffffffffff1916149150506117dd565b600190505b949350505050565b600080600090507a184f03e93ff9f4daa797ed6e38ed64bf6a1f0100000000000000008310611843577a184f03e93ff9f4daa797ed6e38ed64bf6a1f0100000000000000008381611839576118386129c6565b5b0492506040810190505b6d04ee2d6d415b85acef81000000008310611880576d04ee2d6d415b85acef81000000008381611876576118756129c6565b5b0492506020810190505b662386f26fc1000083106118af57662386f26fc1000083816118a5576118a46129c6565b5b0492506010810190505b6305f5e10083106118d8576305f5e10083816118ce576118cd6129c6565b5b0492506008810190505b61271083106118fd5761271083816118f3576118f26129c6565b5b0492506004810190505b606483106119205760648381611916576119156129c6565b5b0492506002810190505b600a831061192f576001810190505b80915050919050565b6000808273ffffffffffffffffffffffffffffffffffffffff163b119050919050565b6000604051905090565b600080fd5b600080fd5b60007fffffffff0000000000000000000000000000000000000000000000000000000082169050919050565b6119a48161196f565b81146119af57600080fd5b50565b6000813590506119c18161199b565b92915050565b6000602082840312156119dd576119dc611965565b5b60006119eb848285016119b2565b91505092915050565b60008115159050919050565b611a09816119f4565b82525050565b6000602082019050611a246000830184611a00565b92915050565b600081519050919050565b600082825260208201905092915050565b60005b83811015611a64578082015181840152602081019050611a49565b60008484015250505050565b6000601f19601f8301169050919050565b6000611a8c82611a2a565b611a968185611a35565b9350611aa6818560208601611a46565b611aaf81611a70565b840191505092915050565b60006020820190508181036000830152611ad48184611a81565b905092915050565b6000819050919050565b611aef81611adc565b8114611afa57600080fd5b50565b600081359050611b0c81611ae6565b92915050565b600060208284031215611b2857611b27611965565b5b6000611b3684828501611afd565b91505092915050565b600073ffffffffffffffffffffffffffffffffffffffff82169050919050565b6000611b6a82611b3f565b9050919050565b611b7a81611b5f565b82525050565b6000602082019050611b956000830184611b71565b92915050565b611ba481611b5f565b8114611baf57600080fd5b50565b600081359050611bc181611b9b565b92915050565b60008060408385031215611bde57611bdd611965565b5b6000611bec85828601611bb2565b9250506020611bfd85828601611afd565b9150509250929050565b600080600060608486031215611c2057611c1f611965565b5b6000611c2e86828701611bb2565b9350506020611c3f86828701611bb2565b9250506040611c5086828701611afd565b9150509250925092565b60006060820190508181036000830152611c748186611a81565b90508181036020830152611c888185611a81565b90508181036040830152611c9c8184611a81565b9050949350505050565b600060208284031215611cbc57611cbb611965565b5b6000611cca84828501611bb2565b91505092915050565b611cdc81611adc565b82525050565b6000602082019050611cf76000830184611cd3565b92915050565b600080fd5b600080fd5b7f4e487b7100000000000000000000000000000000000000000000000000000000600052604160045260246000fd5b611d3f82611a70565b810181811067ffffffffffffffff82111715611d5e57611d5d611d07565b5b80604052505050565b6000611d7161195b565b9050611d7d8282611d36565b919050565b600067ffffffffffffffff821115611d9d57611d9c611d07565b5b611da682611a70565b9050602081019050919050565b82818337600083830152505050565b6000611dd5611dd084611d82565b611d67565b905082815260208101848484011115611df157611df0611d02565b5b611dfc848285611db3565b509392505050565b600082601f830112611e1957611e18611cfd565b5b8135611e29848260208601611dc2565b91505092915050565b600080600060608486031215611e4b57611e4a611965565b5b600084013567ffffffffffffffff811115611e6957611e6861196a565b5b611e7586828701611e04565b935050602084013567ffffffffffffffff811115611e9657611e9561196a565b5b611ea286828701611e04565b925050604084013567ffffffffffffffff811115611ec357611ec261196a565b5b611ecf86828701611e04565b9150509250925092565b611ee2816119f4565b8114611eed57600080fd5b50565b600081359050611eff81611ed9565b92915050565b60008060408385031215611f1c57611f1b611965565b5b6000611f2a85828601611bb2565b9250506020611f3b85828601611ef0565b9150509250929050565b600067ffffffffffffffff821115611f6057611f5f611d07565b5b611f6982611a70565b9050602081019050919050565b6000611f89611f8484611f45565b611d67565b905082815260208101848484011115611fa557611fa4611d02565b5b611fb0848285611db3565b509392505050565b600082601f830112611fcd57611fcc611cfd565b5b8135611fdd848260208601611f76565b91505092915050565b6000806000806080858703121561200057611fff611965565b5b600061200e87828801611bb2565b945050602061201f87828801611bb2565b935050604061203087828801611afd565b925050606085013567ffffffffffffffff8111156120515761205061196a565b5b61205d87828801611fb8565b91505092959194509250565b600080604083850312156120805761207f611965565b5b600061208e85828601611bb2565b925050602061209f85828601611bb2565b9150509250929050565b7f4e487b7100000000000000000000000000000000000000000000000000000000600052602260045260246000fd5b600060028204905060018216806120f057607f821691505b602082108103612103576121026120a9565b5b50919050565b7f4552433732313a20617070726f76616c20746f2063757272656e74206f776e6560008201527f7200000000000000000000000000000000000000000000000000000000000000602082015250565b6000612165602183611a35565b915061217082612109565b604082019050919050565b6000602082019050818103600083015261219481612158565b9050919050565b7f4552433732313a20617070726f76652063616c6c6572206973206e6f7420746f60008201527f6b656e206f776e6572206f7220617070726f76656420666f7220616c6c000000602082015250565b60006121f7603d83611a35565b91506122028261219b565b604082019050919050565b60006020820190508181036000830152612226816121ea565b9050919050565b7f4552433732313a2063616c6c6572206973206e6f7420746f6b656e206f776e6560008201527f72206f7220617070726f76656400000000000000000000000000000000000000602082015250565b6000612289602d83611a35565b91506122948261222d565b604082019050919050565b600060208201905081810360008301526122b88161227c565b9050919050565b7f4552433732313a20696e76616c696420746f6b656e2049440000000000000000600082015250565b60006122f5601883611a35565b9150612300826122bf565b602082019050919050565b60006020820190508181036000830152612324816122e8565b9050919050565b7f4552433732313a2061646472657373207a65726f206973206e6f74206120766160008201527f6c6964206f776e65720000000000000000000000000000000000000000000000602082015250565b6000612387602983611a35565b91506123928261232b565b604082019050919050565b600060208201905081810360008301526123b68161237a565b9050919050565b60008190508160005260206000209050919050565b60006020601f8301049050919050565b600082821b905092915050565b60006008830261241f7fffffffffffffffffffffffffffffffffffffffffffffffffffffffffffffffff826123e2565b61242986836123e2565b95508019841693508086168417925050509392505050565b6000819050919050565b600061246661246161245c84611adc565b612441565b611adc565b9050919050565b6000819050919050565b6124808361244b565b61249461248c8261246d565b8484546123ef565b825550505050565b600090565b6124a961249c565b6124b4818484612477565b505050565b5b818110156124d8576124cd6000826124a1565b6001810190506124ba565b5050565b601f82111561251d576124ee816123bd565b6124f7846123d2565b81016020851015612506578190505b61251a612512856123d2565b8301826124b9565b50505b505050565b600082821c905092915050565b600061254060001984600802612522565b1980831691505092915050565b6000612559838361252f565b9150826002028217905092915050565b61257282611a2a565b67ffffffffffffffff81111561258b5761258a611d07565b5b61259582546120d8565b6125a08282856124dc565b600060209050601f8311600181146125d357600084156125c1578287015190505b6125cb858261254d565b865550612633565b601f1984166125e1866123bd565b60005b82811015612609578489015182556001820191506020850194506020810190506125e4565b868310156126265784890151612622601f89168261252f565b8355505b6001600288020188555050505b505050505050565b600081905092915050565b600061265182611a2a565b61265b818561263b565b935061266b818560208601611a46565b80840191505092915050565b60006126838286612646565b915061268f8285612646565b915061269b8284612646565b9150819050949350505050565b60006126b48285612646565b91506126c08284612646565b91508190509392505050565b7f4552433732313a207472616e736665722066726f6d20696e636f72726563742060008201527f6f776e6572000000000000000000000000000000000000000000000000000000602082015250565b6000612728602583611a35565b9150612733826126cc565b604082019050919050565b600060208201905081810360008301526127578161271b565b9050919050565b7f4552433732313a207472616e7366657220746f20746865207a65726f2061646460008201527f7265737300000000000000000000000000000000000000000000000000000000602082015250565b60006127ba602483611a35565b91506127c58261275e565b604082019050919050565b600060208201905081810360008301526127e9816127ad565b9050919050565b7f4552433732313a206d696e7420746f20746865207a65726f2061646472657373600082015250565b6000612826602083611a35565b9150612831826127f0565b602082019050919050565b6000602082019050818103600083015261285581612819565b9050919050565b7f4552433732313a20746f6b656e20616c7265616479206d696e74656400000000600082015250565b6000612892601c83611a35565b915061289d8261285c565b602082019050919050565b600060208201905081810360008301526128c181612885565b9050919050565b7f4552433732313a20617070726f766520746f2063616c6c657200000000000000600082015250565b60006128fe601983611a35565b9150612909826128c8565b602082019050919050565b6000602082019050818103600083015261292d816128f1565b9050919050565b7f4552433732313a207472616e7366657220746f206e6f6e20455243373231526560008201527f63656976657220696d706c656d656e7465720000000000000000000000000000602082015250565b6000612990603283611a35565b915061299b82612934565b604082019050919050565b600060208201905081810360008301526129bf81612983565b9050919050565b7f4e487b7100000000000000000000000000000000000000000000000000000000600052601260045260246000fd5b600081519050919050565b600082825260208201905092915050565b6000612a1c826129f5565b612a268185612a00565b9350612a36818560208601611a46565b612a3f81611a70565b840191505092915050565b6000608082019050612a5f6000830187611b71565b612a6c6020830186611b71565b612a796040830185611cd3565b8181036060830152612a8b8184612a11565b905095945050505050565b600081519050612aa58161199b565b92915050565b600060208284031215612ac157612ac0611965565b5b6000612acf84828501612a96565b9150509291505056fea26469706673582212205727a48f4a78de83a7391d6483169fa79935cfe266a4c8f35d8d4066d08e2f1464736f6c63430008120033",
  "linkReferences": {},
  "deployedLinkReferences": {}
}